:020000040800F2
:10000000A80E002001010008EB270008612300086A
:10001000E92700080D08000843310008000000002F
:10002000000000000000000000000000D32D0008C8
:100030005508000800000000E92C0008D52D000834
:100040001B0100081B0100081B0100081B01000820
:100050001B0100081B0100081B0100081B01000810
:100060001B0100081B0100081B0100081B01000800
:100070001B010008110800081B0100081B010008F3
:100080001B0100081B0100081B0100081B010008E0
:100090001B0100081B0100081B0100081B010008D0
:1000A0001B0100081B0100081B0100081B010008C0
:1000B0001B0100081B0100081B0100081B010008B0
:1000C0001B0100081B0100081B0100081B010008A0
:1000D0001B0100081B0100081B0100081B01000890
:1000E0001B0100081B0100081B010008DFF80CD0F1
:1000F00000F0E2FA00480047D1350008A80E0020C1
:100100000648804706480047FEE7FEE7FEE7FEE7B1
:10011000FEE7FEE7FEE7FEE7FEE7FEE7392E000812
:10012000ED000008202A04DB203A21FA02F0002129
:10013000704721FA02F3D040C2F1200291400843F7
:100140001946704740EA01039B0703D009E008C93C
:10015000121F08C0042AFAD203E011F8013B00F88C
:10016000013B521EF9D27047D2B201E000F8012BD8
:10017000491EFBD270470022F6E710B513460A4627
:1001800004461946FFF7F0FF204610BD80EA010241
:1001900010B502F00043400022D04A001FD0010EEB
:1001A00001EB1261C0F35600C2F3560240F40000A6
:1001B00042F40002A0FB022000047F39140400D0A6
:1001C000401C50EA124001D44000491EC2B20C0645
:1001D00004EBD010401C4008802A02D003E000202D
:1001E00010BD20F00100002900DA0020184310BDE6
:1001F00030B480EA010202F0004530F0004221F004
:10020000004013D090B1C30DD40DC2F31601C0F35A
:100210001600E41A41F4000140F400027D349142DA
:1002200001D3641C00E04900002C02DA30BC00203D
:1002300070474FF400000023914201D3891A034311
:1002400040084FEA4101F7D151B1914202D14FF03C
:10025000004105E002D24FF0010101E06FF0010121
:1002600003EBC450284430BC00F0E8B82DE9FE4F41
:1002700081EA030404F0004421F0004100944FF0AF
:10028000000B23F0004350EA01045ED052EA03045D
:100290005BD0C3F30A54C1F30A552C44A4F2F334DF
:1002A0000194A0FB0254C1F3130141F48011C3F384
:1002B000130343F4801301FB024400FB034E840A42
:1002C000970A44EA815447EA8357A4FB07680295DA
:1002D0008D0A05FB07854FEA932C04FB0C54270578
:1002E000029D4FEA065847EA1637B5EB08056EEB54
:1002F000070C870E920E47EA811742EA8312A7FB8A
:100300000201B6EB0B0164EB00042B0D43EA0C3346
:100310005E1844EB1C50DA465146E7FB0201C5F378
:1003200013044FEA0B3343EA14534FEA0432019C9F
:1003300043EA0603A4F10C040294009CCDE900B446
:1003400000F044F903B0BDE8F08F00200146F9E762
:1003500070B521F0004303430CD0C1F30A550024CB
:10036000D5EB040564EB0403D617AD1AB34102DBE9
:100370000020014670BD201841EB025170BDC10F35
:1003800080EAE0700844CA079623002100F05FB8B5
:100390000EB540F2334102910021CDE900110A4629
:1003A0000B4600F013F903B000BD00F0004220F04E
:1003B0000040C10DC0F3160040F400007F2901DAAF
:1003C00000207047962903DCC1F19601C84001E086
:1003D00096398840002AF4D04042704720F000400F
:1003E000C10DC0F3160040F400007F2901DA00209F
:1003F0007047962903DCC1F19601C84070479639D1
:100400008840704701F0004330B421F0004150EAC9
:10041000010206D00A0DA2F56072C1F31301002A91
:1004200002DC30BC00207047440F44EAC104C10024
:10043000E01830BC00EBC250AFF300800029A8BF29
:100440007047401C490008BF20F00100704710B4FD
:10045000B0FA80FC00FA0CF050EA010404BF10BCB2
:10046000704749B1CCF1200421FA04F411FA0CF1DF
:1004700018BF012121430843A3EB0C01CB1D4FEA18
:1004800000614FEA102042BF002010BC704700EB13
:10049000C35010440029A4BF10BC7047401C490041
:1004A00008BF20F0010010BC7047F0B480EA0102E0
:1004B000D40F4200B2EB410F02D202460846114669
:1004C0004A0042D0C30DDDB2C1F3C752AD1A202D90
:1004D00035DAC1F3160141F4000204B15242C5F10C
:1004E000200602FA06F12A411044B3EBD05F23D074
:1004F000C4B1012DA0EBC35009DCF0BC4FF00042A9
:1005000002EAC352DBB200F50000FFF7A0BF4000D3
:1005100000F1807000EBC350A0F1807040EAD17010
:10052000490009E0490841EAC071A0EBC35000F559
:100530000000400800EBC350F0BCFFF77FBF6142F2
:10054000012202EB4101001BF6E7F0BC704781F08D
:100550000041AAE780F00040A7E7420005D0C0F3C1
:10056000C7525242914201DC0020704700EBC1505B
:10057000704710B541000CD0C0F3C751962908DC74
:100580007E2909DC06DB410204D000F0004040F087
:100590007E5010BD002010BDC1F19604C4F12001B1
:1005A00000FA01F1E040FFF749FFA04010BD10B58F
:1005B000141E73F1000408DA401C41F10001921886
:1005C0005B411A4301D120F0010010BD2DE9F04D2F
:1005D00092469B4611B1B1FA81F202E0B0FA80F284
:1005E0002032904600F07AF804460F4640EA0A00AE
:1005F00041EA0B0153465A46084313D0114653EAC9
:10060000010019D0C8F140025046FFF78BFD0546A6
:100610000E4650465946424600F060F8084305D061
:10062000012004E020463946BDE8F08D0020054356
:1006300046EAE0762C4337430A986305E40AA0EBC8
:1006400008000022FD0A44EA47540A3002D500207F
:100650000146E9E7010510196941DDE9084500197E
:100660006941BDE8F04DA2E710B500F0004420F06C
:100670000040C20DC0F3160040F400007F2A07DAE4
:100680007D2A00DA7D22763A00FA02F1002008E0A5
:10069000962A09DCA2F1760100FA01F1C2F1960274
:1006A000D040FFF7CBFE01E0963A9040002C00D0FE
:1006B000404210BD00207047064C074D06E0E06840
:1006C00040F0010394E8070098471034AC42F6D399
:1006D000FFF710FD6841000888410008202A04DB6C
:1006E000203A00FA02F1002070479140C2F1200345
:1006F00020FA03F319439040704770B58C1810F836
:10070000015B15F0070301D110F8013B2A1106D156
:1007100010F8012B03E010F8016B01F8016B5B1E70
:10072000F9D12B0705D40023521E0DD401F8013B4B
:10073000FAE710F8013BCB1A921C03E013F8015BB7
:1007400001F8015B521EF9D5A142D8D3002070BD3B
:1007500070B5044600688168C943C9071CD1816827
:1007600021F00101816000F0E9FC05460FE000BFC7
:1007700000F0E4FC401B022809D9A06A40F01000F8
:10078000A062E06A40F00100E062012070BD2068D4
:100790008068C043C007EBD0002070BDF8B50026CC
:1007A0000446009600688168C943C90728D081685B
:1007B00041F001018160134813490068B0FBF1F07A
:1007C00000E0401E00900028FBD100F0B7FC054679
:1007D00011E000BF00F0B2FC401B02280BD9A06A58
:1007E00040F01000A062E06A40F00100E06284F88E
:1007F00024600120F8BD20688068C043C007E9D1AB
:100800000020F8BD2C01002040420F00FEE7000050
:10081000014800F06FBA00006408002030B590F87D
:1008200040500124AC40C56B6C6004686360436851
:10083000102B036803D099600068C26030BD9A60D5
:100840000068C16030BD10B502F080FEBDE8104008
:1008500002F0E2BD70477047F8B50024009490F8AC
:1008600024202546012A12D0012280F824204A683B
:100870001F23072A0DD20668776B521E02EB8202F5
:1008800093409F430B6893401F43776319E0022016
:10089000F8BD06680D2A0AD2376BD21F02EB82021E
:1008A00093409F430B6893401F43376309E0F76A07
:1008B0000D3A02EB820293409F430B6893401F4323
:1008C000F7620A68072306680A2A0AD3F7680A3A11
:1008D00002EB420293409F438B6893401F43F760B3
:1008E00008E0376902EB420293409F438B689340D4
:1008F0001F4337610A68102A01D0112A20D1124BF8
:1009000002689A4217D193681B0219D4936843F482
:10091000000393600968102912D10C490C4A096838
:10092000B1FBF2F101EB8101490000E0491E0091A9
:100930000029FBD104E0816A41F020018162012499
:1009400080F824502046F8BD002401402C010020EE
:1009500040420F000068C06C704700002DE9F04174
:100960004FF0000704003D467ED0A06A002628B95B
:10097000E66284F82460204600F07EF82046FFF707
:10098000E7FEA16AC90600D420B1A06A40F01000B9
:10099000A06269E0A16A21F4885141F00201A162DC
:1009A0006268E169237B0A4347EA43010A43A1687D
:1009B0004FF48077B94209D0012907D05FF00001D8
:1009C00094F814C0BCF1010F02D00AE03946F7E7F1
:1009D000F3B1A36A43F02003A362E36A43F0010387
:1009E000E3622368D3F804C02CF4694C4CEA010C90
:1009F000C3F804C021688B68DFF870C003EA0C03F9
:100A000013438B60A168B9420BD0012909D00CE0D7
:100A1000DFF85CC0A3690CEB43330B4343F4006184
:100A2000DFE7218A0D05A5F580152168CB6A23F43F
:100A300070032B43CB62216889680E4B19409142A9
:100A400008D1E662A16A21F0020141F00101A16230
:100A5000BDE8F081A06A20F0020040F01000A06222
:100A6000E06A40F00100E0620120F1E7FDF7E1FFFC
:100A700000E0FFFFFE0E1FFF00B585B000210091D2
:100A800001910291039100680E49884218D10E48E5
:100A9000816941F400718161816901F400710491FF
:100AA000816941F0040181618069694600F00400B8
:100AB00004900F20009003200190044800F03CFABD
:100AC00005B000BD002401400010024000080140B4
:100AD0002DE9F84300260D460446009600F02EFB53
:100AE000804620688168C90508D5A06A40F02000CA
:100AF000A06284F824600120BDE8F8834168C9053C
:100B000003D4C06A10F4700F26D0022000F0A4FCB9
:100B100038490968B1FBF0F72068036936490B4290
:100B20004FEA61014FEAA1121BD1C3684FEA611C71
:100B300013EA0C0F15D103690B4221D1C068104292
:100B40001ED114201FE0681C06D045B300F0F6FA51
:100B5000A0EB0800A84222D8206800688007F2D5E0
:100B60002AE003690B4202D1C168114206D0026932
:100B700022490A4206D1C068084203D1542002E04B
:100B8000292000E0FC204743009813E0681C0ED0A9
:100B90002DB100F0D3FAA0EB0800A84207D9A06A53
:100BA00040F00400A06284F824600320A4E70098C9
:100BB000401C0090B842E9D321686FF01200086031
:100BC000A06A40F40070A06220688068C0F34240D0
:100BD00007280CD1207B50B9A06A20F48070A06255
:100BE000A06AC00403D4A06A40F00100A062002003
:100BF00082E700002C01002024499224499224001D
:100C000070B5044690F8240001280DD0012084F826
:100C100024002046FFF7C2FD02004FF0000005D07F
:100C200084F82400104670BD022070BDA16A40F215
:100C30000123994341F48071A1621F4D23681F492C
:100C4000AB4218D10E6816F4702F14D0A66A46F481
:100C50008016A6620E68760505D5A66A26F40056AB
:100C600046F48056A662A66AF6040AD5E66A26F01D
:100C70000606E66206E0A66A26F48016A6625E68AC
:100C8000E9E7E06284F824006FF002001860206851
:100C90008368C3F34243072B05D1A84208D10968F2
:100CA00011F4702F04D0816841F480118160B9E79C
:100CB000816841F4A001F9E70028014004240140C3
:100CC00010B5044690F82400012807D0012084F8CC
:100CD00024002046FFF73CFD10B107E0022010BDC4
:100CE000A16A21F4885141F00101A162002184F838
:100CF000241010BD2DE9F05FC16B0C6801680B6812
:100D0000D0F840C0042202FA0CF2494DDFF824A1C9
:100D1000494E4A4FDFF828B1DFF828E122422CD0B3
:100D20005A072AD50A68920603D40A6822F00402F8
:100D30000A600168A94201D1042219E0514501D19C
:100D4000402215E0B14202D14FF4806210E0B94276
:100D500002D14FF480420BE0594502D14FF480227A
:100D600006E0714502D14FF4800201E04FF080624D
:100D70002F4908394A60C16A3BE04FF0020808FA7F
:100D80000CF818EA040F4FF000094FF0010235D0BB
:100D90005FEA837832D50B689B0605D40B6823F095
:100DA0000A030B6080F821200168A94201D10222C8
:100DB00019E0514501D1202215E0B14202D14FF492
:100DC000007210E0B94202D14FF400520BE05945D5
:100DD00002D14FF4003206E0714502D14FF4001207
:100DE00001E04FF00072124908394A6080F8209003
:100DF000816A00291AD0BDE8F05F0847082505FA86
:100E00000CF5254212D01B0710D50B6823F00E03FA
:100E10000B6090F84010C36B02FA01F159608263D5
:100E200080F8212080F82090016BE2E7BDE8F09F78
:100E3000080002401C000240300002404400024012
:100E4000580002406C00024030B528B308C813496E
:100E500014221944B1FBF2F18900C1631049816386
:100E6000022141771A6843F6F0718A43D0E90014F1
:100E70002143D0E902452C432143046921434469BD
:100E800021438469214311431960002141630122F8
:100E900042770177084630BD012030BDF8FFFDBF25
:100EA0000000024070B5044690F82000002501289B
:100EB0000CD0012084F8200094F821600020012E3D
:100EC00006D084F820000225284670BD022070BD9F
:100ED000022684F82160A0632068066826F00106D7
:100EE00006602046FFF79AFCE06A00282068016847
:100EF00002D041F00E0106E021F0040101602068FB
:100F0000016841F00A0101602068016841F00101B7
:100F10000160D9E770B5044600F010F90546601C81
:100F200002D004480078044400F008F9401BA042B5
:100F3000FAD370BD300100202DE9F84FDFF8B891E9
:100F4000002409F1040A0AF1040B23460F270BF1D0
:100F5000040EC9E00125A5402A40AA427DD1674E72
:100F6000D1F804C0ACEB0608B44532D014DCBCF1B7
:100F7000030F3AD009DCBCF1000F2AD0BCF1010FFD
:100F80001CD0BCF1020F31D11DE0BCF1110F17D004
:100F9000BCF1120F2AD119E0B8F5881F19D006DC70
:100FA000B8F5803F15D0B8F5801F1FD111E0B8F516
:100FB000001F0ED0B8F5041F18D10AE0CB6815E069
:100FC000CB681B1D12E0CB6808330FE0CB680C33F5
:100FD0000CE08B682BB1012B4FF0080303D0456167
:100FE00004E0042302E0056100E00023FF2A01D8A9
:100FF000064601E000F104064FEA840501D9A5F197
:101000002005D6F8008007FA05FC28EA0C0803FA48
:1010100005F548EA0508C6F800804D68ED0062D580
:10102000374DAE6946F00106AE61AD6924F00306A6
:1010300005F001050095334D06EB050CDCF8085072
:10104000A607360F07FA06F825EA0805DFF8B88084
:10105000404503D14FF0000817E044E0DFF8AC80D2
:10106000404502D14FF001080FE0DFF8A480404571
:1010700002D14FF0020808E0DFF89880404502D125
:101080004FF0030801E04FF0040808FA06F848EAB8
:101090000508CCF808804D68D9F80060ED034D468E
:1010A00001D5164300E096432E604D68DAF80060E3
:1010B000AD03554601D5164300E096432E604D68BA
:1010C000DBF80060ED025D4601D5164300E0964373
:1010D0002E604D68DEF80060AD02754601D51643FE
:1010E00000E096432E60641C0D682A46E5407FF4BC
:1010F00031AFBDE8F88F000000040140000011107E
:10110000001002400000014000080140000C0140B6
:1011100000100140001401408068084000D0012008
:101120007047C2680A4201D041617047016170474F
:101130000AB1016170470904FBE7000001488068BB
:10114000704700003001002070B504001BD094F8F7
:101150003D00002520B984F83C50204600F0AEF850
:10116000242084F83D002068016821F0010101601D
:1011700000F0E2FA4D4A6168914201D84C4900E022
:101180004C49884201D2012070BD4B492368B0FB15
:10119000F1F15E6826F03F060E435E60636893429D
:1011A00006D94FF4967359434FF47A73B1FBF3F1B8
:1011B0002368491C1E6A26F03F06314319626168A4
:1011C000914210D84900401EB0FBF1F2521CC2F30C
:1011D0000B02042A01D2042022E0B0FBF1F0401CF3
:1011E000C0F30B001CE0A368F3B301EBC10202EBF8
:1011F0000116421EB2FBF6F2521C42F48042120566
:1012000049D093B301EBC10202EB0111401EB0FBC8
:10121000F1F0401CC0F30B0040F4804040F400406B
:101220002168CA694CF6FF739A431043C861D4E938
:101230000701084321680A6822F0C00210430860D1
:10124000D4E9030101432068826848F2FF339A43DE
:1012500011438160D4E9050108432168CA6822F07E
:10126000FF021043C86001E00EE016E0206801684C
:1012700041F0010101602564202084F83D002563D0
:1012800084F83E50002070BD01EB4106421EB2FBC7
:10129000F6F2521CB3E70120C2E701EB4101401E08
:1012A000B0FBF1F0401CC0F30B00B7E7A0860100D3
:1012B00080841E0000093D0040420F0010B586B03A
:1012C0000021009101910291039100681349884225
:1012D00022D1134CE06940F40010E061E06900F4B1
:1012E00000100490A06940F00800A061A069694660
:1012F00000F008000490C02000901220019003200C
:1013000003900848FFF718FEE06940F40010E06120
:10131000E06900F40010049006B010BD00540040D5
:1013200000100240000C014002488168027811441C
:101330008160704730010020074810B5016841F016
:1013400010010160032000F075F8002000F006F89D
:1013500000F024F8002010BD0020024070B50D4DB3
:1013600004464FF47A712878B1FBF0F00A49096815
:10137000B1FBF0F000F02FFD48B9102C07D200228D
:101380002146501E00F036F800206C6070BD012030
:1013900070BD0000300100202C0100200C4808B571
:1013A000816941F001018161816901F001010091D0
:1013B000C16941F08051C161C06900F08050009066
:1013C0000448416821F0E06141F00071416008BDCE
:1013D0000010024000000140002809DB00F01F025D
:1013E000012191404009800000F1E020C0F8001187
:1013F00070470000F0B40E4B1B680C46C3F3022389
:10140000C3F10705042D00D90425191D072901D2B0
:10141000002300E0DB1E012606FA05F1491E2140EB
:1014200099409E40761E16403143F0BC01F03FBF0C
:101430000CED00E0064900F0070208684FF6FF03D4
:10144000184040EA0220034A104308607047000039
:101450000CED00E00000FA0510B529A401461DCCF2
:1014600086B08DE81D002AA02A4C00680490002058
:10147000012923D002293AD010291DD161682268A0
:10148000D20119D5C1F38342C9031DF8020009D561
:10149000616804AAC1F34041515C1F4AB2FBF1F1FB
:1014A000484301E01D4948436168490204D44000B3
:1014B0005FF00301B0FBF1F006B010BD226AC2F389
:1014C0000121012903D1920701D5C803F4E70229BC
:1014D00005D1626A920702D549F64040ECE703293C
:1014E000EAD121688903E7D54FF22440E4E700F010
:1014F00033F96168C1F38131491C4900DAE7000022
:1015000002030405060708090A0B0C0D0E0F101044
:10151000010200000010024000127A0000093D00A4
:101520002DE9F84305460078354CC00754D0E069F2
:101530000026C00008D4E06940F08050E061E06916
:10154000012600F0805000902E480168C90512D491
:101550000168804641F480710160FFF7EFFD0746A6
:1015600005E000BFFFF7EAFDC01B642823D8D8F8C8
:101570000000C005F6D5206A10F4407021D0A9887B
:1015800001F4407181421CD0206A1F49012220F4DD
:1015900040700A6000220A602062C00711D0FFF785
:1015A000CDFD074641F2883808E000BFFFF7C6FDD1
:1015B000C11B414502D90320BDE8F883206A80079A
:1015C000F4D5206A696820F44070084320621EB197
:1015D000E06920F08050E0612878800705D56068D8
:1015E000A96820F44040084360602878C00605D50B
:1015F0006068E96820F48000084360600020DBE751
:101600000010024000700040400442422DE9F047C3
:101610000F46050061D0434E306800F00700B84225
:1016200009D2306820F0070038433060306800F09D
:101630000700B84251D128683B4C810712D54007BA
:1016400003D5606840F4E06060602878000703D547
:10165000606840F4605060606068A96820F0F00045
:10166000084360602878C00728D06868012810D037
:101670002168022810D0890700292EDA616821F03C
:10168000030101436160FFF759FD804641F288394B
:101690000DE021688903EFE78901EDE7FFF74EFDD3
:1016A000A0EB0801494502D90320BDE8F087606836
:1016B000696800F00C00B0EB810FEFD1306800F0EA
:1016C0000700B8420BD9306820F00700384330607B
:1016D000306800F00700B84201D00120E5E7287823
:1016E000400705D56068E96820F4E0600843606061
:1016F0002878000706D56068296920F4605040EA20
:10170000C100606000F038F86168084AC1F3031155
:10171000515CC8400649086006480068FFF71EFE95
:101720000020C2E7002002400010024010400008E4
:101730002C01002034010020044805490068496854
:10174000044AC1F30221515CC84070472C010020BB
:10175000001002402040000804480549006849681C
:10176000044AC1F3C221515CC84070472C010020DB
:10177000001002402040000812A185B00FC98DE87A
:101780000F0014A0144A006804905168134801F037
:101790000C03042B10D0082B0ED1C1F38343C903D3
:1017A0001DF803000AD5516804AAC1F34041515CF9
:1017B0000A4A5043B0FBF1F005B07047084948436E
:1017C000FAE7000002030405060708090A0B0C0DDE
:1017D0000E0F1010010200000010024000127A00EB
:1017E00000093D002DE9F84F040070D02078C04D6D
:1017F000C00749D06868C0F38100012807D0686835
:10180000C0F38100022809D16868C00306D52868A2
:10181000800339D560680028E7D035E06068B0F50E
:10182000803F0BD010B1B0F5A02F11D0286820F464
:1018300080302860286820F4802002E0286840F486
:1018400080302860606890B1FFF778FC06460AE0B7
:10185000286840F480202860F0E700BFFFF76EFCA6
:10186000801B642873D828688003F7D50CE0FFF745
:1018700065FC064605E000BFFFF760FC801B64289E
:10188000F0D828688003F7D420789A4E80074FF06C
:1018900001094FF0000839D5686810F00C0F07D027
:1018A0006868C0F38100022809D16868C00306D4C3
:1018B0002868800714D52069012808D110E0206924
:1018C000B0B1C6F80090FFF739FC074605E00AE121
:1018D000FFF734FCC01B0228C4D828688007F7D55E
:1018E0002868616920F0F80040EAC10028600DE036
:1018F000C6F80080FFF722FC074604E0FFF71EFC55
:10190000C01B022823D828688007F7D42078000756
:101910002CD57948A169D9B1C0F80090FFF70EFC29
:10192000074604E0FFF70AFCC01B02280FD8686ACC
:101930008007F7D571484FF4FA510068B0FBF1F019
:10194000009000BF0098411E0091FAD20EE080E0A6
:10195000C0F80080FFF7F2FB074604E0FFF7EEFB5C
:10196000C01B022875D8686A8007F7D42078400722
:1019700060D5E8690027C00008D4E86940F08050CD
:10198000E861E869012700F0805000905C48016838
:10199000C90513D40168834641F480710160FFF7E3
:1019A000CDFB824606E000BFFFF7C8FBA0EB0A00B4
:1019B00064284ED8DBF80000C005F5D5E0680128A2
:1019C0000AD008B1052813D0286A20F00100286247
:1019D000286A20F0040002E0286A40F00100286232
:1019E000E06841F2883B98B1FFF7A8FB82460BE024
:1019F000286A40F004002862EEE700BFFFF79EFB74
:101A0000A0EB0A0159455AD8286A8007F6D50CE0A0
:101A1000FFF794FB824605E0FFF790FBA0EB0A017D
:101A200059454CD8286A8007F6D41FB1E86920F0E0
:101A30008050E861E06988B36968C1F381010229D7
:101A400044D00228C6F8608004D0FFF777FB044634
:101A500038E034E0FFF772FB074604E0FFF76EFB67
:101A6000C01B02282BD828688001F7D4206AB0F563
:101A7000803F05D16868A16820F4003008436860A1
:101A8000D4E908010843696821F4741108436860C7
:101A9000C6F86090FFF752FB044606E025E000BF61
:101AA000FFF74CFB001B022809D828688001F7D5F6
:101AB0001BE000BFFFF742FB001B022802D90320F6
:101AC000BDE8F88F28688001F4D40EE00128F7D033
:101AD0006868226A00F48031914204D1616A00F49E
:101AE0007010884201D00120EAE70020E8E70000FA
:101AF0000010024000004242800442422C010020BB
:101B00000070004070B5040005D00025A56294F86F
:101B1000510010B106E0012070BD84F850502046FD
:101B200000F02EF8022084F851002068016821F0AE
:101B300040010160D4E901010843D4E903121143D3
:101B4000084361690843218B01F400710843E1698E
:101B50000843216A0843A16A084321680860A06914
:101B6000042101EA1040216848602068C16921F41D
:101B70000061C1616565012084F85100002070BDDD
:101B800030B585B000240094019402940394006859
:101B90001549884225D11548C16941F48041C16188
:101BA000C16901F480410491816941F008018161BA
:101BB00080690F4D00F0080004904FF42040009021
:101BC000022001900320039069462846FFF7B4F9EC
:101BD0004FF48040CDE90004694628460294FFF79F
:101BE000ABF905B030BD00000038004000100240E5
:101BF000000C01402DE9F84F044690F850000027F2
:101C00000A9E1D4692468B464FF0010901280ED0D0
:101C1000012084F85000FFF791FA804694F85100B3
:101C2000616801280CD0B1F5827F07D102E0022063
:101C3000BDE8F88FA16809B9042801D00227C2E0E5
:101C4000BBF1000F27D0BAF1000F24D01DB394F8D8
:101C50005100042802D0052084F85100002060655E
:101C6000C4F838A0E587A587C4F830B0E586A58616
:101C70002064606420680168490603D4016841F06B
:101C800040010160E068B0F5006F606805D0E8B31E
:101C9000012D46D07FE0012795E008B1012D39D113
:101CA000206B21680088C860206B801C2063E08E58
:101CB000401EE0862EE02068816889070FD5E18EFE
:101CC00069B1B9F1010F0AD1216B0988C160206B9C
:101CD000801C2063E08E401EE0864FF000092068E3
:101CE0008168C9070CD0E18F51B1C068A16B088031
:101CF000A06B801CA063E08F401EE0874FF00109BD
:101D0000FFF71CFAA0EB0800B04200E009E001D3A5
:101D1000701C50D1E08E0028CDD1E08F0028CAD1B0
:101D20003FE0206B216800780873206B401C206323
:101D3000E08E401EE0862EE02068816889070FD57E
:101D4000E18E69B1B9F1010F0AD1216B09780173F4
:101D5000206B401C2063E08E401EE0864FF000099F
:101D600020688168C9070CD0E18F51B1C068A16BB0
:101D70000870A06B401CA063E08F401EE0874FF00E
:101D80000109FFF7DBF9A0EB0800B04202D3701C99
:101D900001D010E07EB1E08E0028CDD1E08F002888
:101DA000CAD142463146204600F0A4FF28B101279F
:101DB0002020606507E0032705E0A06818B92068C7
:101DC000C16880680090012084F85100002084F8E8
:101DD000500038462CE710B5401EB0F1807F01D38B
:101DE000012010BD4FF0E02460610F21601701F069
:101DF0005EFA0020A06107202061002010BD10B510
:101E000090F83C20012A22D0012280F83C20CA68A8
:101E10008C6822F4407222434C6822F48062224390
:101E20000C6822F4006222430C6922F4805222439F
:101E30004C6922F400522243C969002322F48042F3
:101E40000A4301684A6480F83C30002010BD02203B
:101E500010BD70B590F83C20012A19D0012400F87B
:101E60003C4F0222427050F83C3C5A689D6822F078
:101E700070060A684968324325F0800529435A6094
:101E800050F83C2C9160447000210170084670BDF0
:101E9000022070BD10B5040003D094F83D0010B1CD
:101EA00007E0012010BD002084F83C00204600F02F
:101EB0000DF8022084F83D00211D206800F0E0FFAD
:101EC000012084F83D00002010BD000038B5054613
:101ED00000681E4A1E49904221D1886940F4006082
:101EE000886188691C4C00F40060009019482060EB
:101EF000102060600020A0608020E0604000206131
:101F0000800060612020A0610002E0612046FEF7B1
:101F10009BFF08B1FEF79FFCAC62656238BDB0F173
:101F2000804F0BD00D4A9042F8D1C86940F00400B0
:101F3000C861C86900F00400009038BDC86940F06D
:101F40000100C861C86900F00100F5E7002C0140FC
:101F500000100240300002406408002000080040E9
:101F600070B5044690F83C00012817D0012584F88C
:101F70003C50022084F83D002068826822F07702FD
:101F800022F47F4282600868502830D00DDC20287F
:101F90004DD005DC98B310283BD148E0022070BD3D
:101FA000302844D0402834D139E0602828D0702827
:101FB00006D0B0F5805F2CD0B0F5005F29D10AE0E3
:101FC000CB68D1E90121206800F0E3FF2068816837
:101FD00041F0770109E0CB68D1E90121206800F0E8
:101FE000D8FF2068816841F48041816011E0CA68AF
:101FF0004968206801F082F85021206807E016E067
:10200000CA684968206801F08AF86021206800F0F9
:10201000CAFF84F83D50002084F83C0070BDCA68B7
:102020004968206801F06AF840212068EFE72268DB
:1020300001461046EBE7704700B585B000210091DE
:10204000019102910391154B0268154802219A42B1
:102050000ED1826942F0040282618069039100F02E
:10206000040004900802CDE9000169460D4810E023
:102070000D4B9A420FD1826942F008028261806959
:10208000039100F0080004909815CDE9000169461D
:102090000648FEF751FF05B000BD0000002C0140CE
:1020A000001002400008014000080040000C014000
:1020B00070B5044690F83C000D4601280DD001266D
:1020C00084F83C60022084F83D0042B1042A18D014
:1020D000082A2AD00C2A4DD139E0022070BD206890
:1020E00000F06AFF2068816941F008018161206881
:1020F000816921F004018161206881692A691143A5
:1021000011E0206800F080FF2068816941F40061DF
:1021100081612068816921F4806181612068816921
:102120002A6941EA0221816124E0206800F098FFD9
:102130002068C16941F00801C1612068C16921F0CE
:102140000401C1612068C1692A69114311E0206856
:1021500000F0B2FF2068C16941F40061C1612068EC
:10216000C16921F48061C1612068C1692A6941EABD
:102170000221C16184F83D60002084F83C0070BDFC
:1021800010B5040003D094F83D0010B107E0012021
:1021900010BD002084F83C00204600F00CF802201E
:1021A00084F83D00211D206800F06AFE012084F8BB
:1021B0003D00002010BD70477047704710B50446C1
:1021C0000068012200F092FE09492068884203D18C
:1021D000416C41F4004141642068816801F00701CD
:1021E000062903D0016841F001010160002010BD03
:1021F000002C01402DE9F041044690F83D001746BF
:102200000D46022850D094F83D00012805D10FB9A1
:10221000002B6BD1022084F83D0038483849394EF4
:1022200035B1042D16D0082D41D00C2D24D150E00D
:10223000626A9062606AC162606A394606632268B7
:10224000606A3432FEF72EFE80BB2068C16841F41C
:10225000007110E0A26A9062A06AC162A06A394669
:1022600006632268A06A3832FEF71CFEF0B92068C7
:10227000C16841F48061C16001222946206800F0F4
:1022800035FE21492068884203D1416C41F4004168
:1022900041642068816801F00701062903D00168C4
:1022A00041F0010101600020BDE8F0811EE0E26A1A
:1022B0009062E06AC162E06A394606632268E06AB9
:1022C0003C32FEF7EFFD88B92068C16841F4006137
:1022D000D1E7226B9062206BC162206B39460663A6
:1022E0002268206B4032FEF7DDFD08B10120DBE7FC
:1022F0002068C16841F48051BDE70000072F000845
:10230000452F0008832F0008002C014010B504461B
:102310000068002200F0EAFD104B41F21111206824
:102320008A10984209D1036A0B4206D1036A13420C
:1023300003D1436C23F4004343642068036A0B42D7
:1023400006D1016A114203D1016821F00101016047
:10235000012084F83D00002010BD0000002C014049
:10236000FEE7000010B5174815490823C0F884108F
:102370001549C0E9031315494160154981601549A4
:10238000016000F18801416113491C03C1610484AB
:10239000124A426203851023C262038642632022EE
:1023A0000287CA14C163A0F840200D4AC0E9142175
:1023B0004021A0F858100B49C165A0F8604010BD3D
:1023C0004708000830000020240800207D33000862
:1023D000B93300082533000800080140000C014013
:1023E000C806002000100140FEB5002521480095D8
:1023F00001951F49029501608915816005730124CB
:102400000475042606614FF460214560C0E9064169
:10241000FEF7A4FA08B1FEF71EFA05200095CDE9F3
:10242000014069461348FEF717FA08B1FEF713FAA0
:102430000094022469460F480194FEF70DFA08B192
:10244000FEF709FA0094032469460A480194FEF74E
:1024500003FA08B1FEF7FFF9CDE9004669460548E1
:10246000FEF7FAF9002801D0FEF7F5F9FEBD0000ED
:1024700000240140C8060020094808B5416941F020
:10248000010141614069002200F001000090114605
:102490000D20FEF7AFFFBDE808400D20FEF79CBF02
:1024A000001002402DE9F04385B000243848009424
:1024B000019402940394816941F010018161816962
:1024C00001F010010491816941F02001816181696D
:1024D00001F020010491816941F004018161816969
:1024E00001F004010491816941F008018161806972
:1024F000DFF8A08000F00800049000224FF4C041F3
:102500004046FEF715FEDFF890904FF4C0570022CA
:1025100039464846FEF70CFE4FF4005001250226CE
:10252000CDE90005CDE9024669464046FEF704FDC7
:10253000A803CDE900050320CDE9024069464046E5
:10254000FEF7FAFCE803CDE9000469464046029430
:10255000FEF7F2FC48F64000CDE9000469460F485A
:102560000294FEF7E9FC4FF48760CDE90004694668
:1025700048460294FEF7E0FC00970396CDE901542B
:1025800069464846FEF7D8FC05B0BDE8F083000078
:102590000010024000100140000C01400008014002
:1025A0000D4810B50B4901600C49416000214FF402
:1025B00080428160C0E9031241618161C1610162B1
:1025C000FEF7C2FD002803D0BDE81040FEF743B976
:1025D00010BD000000540040F8060020801A0600DC
:1025E0000F4810B50D4901604FF482714160002120
:1025F0008160C1604FF400720161C0E90512C161E0
:102600000162416281620A21C162FFF77BFA002800
:1026100003D0BDE81040FEF71EB910BD00380040E1
:102620004C07002010B596B000240F94109411941C
:10263000129413941C2108A81494FDF79CFD2021EA
:102640006846FDF798FD27482549C0E9001459213F
:10265000C0E90241046144618461FFF71BFC08B1D9
:10266000FEF7F9F84FF480500F900FA91D48FFF7BF
:1026700077FC08B1FEF7EFF81A48FFF781FD08B1C3
:10268000FEF7E9F8139413A916481494FFF7E1FB39
:1026900008B1FEF7E0F86020CDE908040A940B9435
:1026A0000C940D94042208A90E480E94FFF700FD27
:1026B00008B1FEF7D0F800944FF40050CDE9044083
:1026C000029401940394694606480794FFF797FB28
:1026D00008B1FEF7C0F80348FFF7AEFC16B010BD16
:1026E000002C0140A407002010B586B00024164835
:1026F000009401940294039404944FF08041059453
:10270000C0E900145921C0E90241802104618161BE
:10271000FFF7C0FB08B1FEF79EF84FF48050009021
:1027200069460948FFF71CFC08B1FEF794F80494C9
:1027300004A905480594FFF78CFB002801D0FEF79B
:102740008AF806B010BD0000E407002010B58EB076
:1027500000240794089409940A940B941C21684659
:102760000C94FDF708FD1F481D4901604721C0E991
:10277000011440F2E731C0E903148461FFF78AFBDA
:1027800008B1FEF768F84FF48050079007A9154884
:10279000FFF7E6FB08B1FEF75EF81248FFF7F0FC22
:1027A00008B1FEF758F80B940BA90E480C94FFF7EC
:1027B00050FB08B1FEF74FF8602000904FF4FA701C
:1027C000CDE901040822694606480494FFF770FC2D
:1027D00008B1FEF740F80348FFF72EFC0EB010BD1D
:1027E0000008004024080020FEE7704770B504464A
:1027F00014F85C0F00F06CFF0546E18C0022E069E4
:10280000FEF796FC14F80C3B302154F8682920465A
:1028100000F0D6FF94F85C302A461021204600F0E4
:102820008DFF002094F85C100BE0A36E2A5C1B5C0B
:102830009A4204D0284600F0C7FD012070BD401C1C
:10284000C0B28142F1D8284600F0BEFD002070BD24
:1028500070B5002604460D4680F897601C2258305B
:10286000FDF770FC2046FFF7C1FF08B1012070BDE5
:10287000B4F882100022A06FFEF75AFCAA7821213A
:10288000204600F0C2FF6A782221204600F0BDFFFA
:10289000EA792521204600F0B8FF6A7A287A2621B5
:1028A0000243A87A0243204600F0AFFFB4F882103A
:1028B0000122A06FFEF73CFCEA782321204600F0BD
:1028C000A4FFE87E022804D173225021204600F0A4
:1028D0009CFFEA7E687E3D210243204600F095FF82
:1028E000AA7E3C21204600F090FF2878012801D0E4
:1028F00020B106E0204600F0E5F802E0204600F0B6
:1029000029F994F89720E121204600F07EFF94F801
:102910009720E221204600F078FFC4F89060C4F8C8
:102920008C6084F89460072084F89500202084F857
:10293000970070222721204600F067FF204600F014
:1029400002F8002070BD70B504460246002100F078
:102950001AFF621C0121204600F015FFA21C022173
:10296000204600F010FFE21C0321204600F00BFF80
:10297000221D0421204600F006FF621D052120468D
:1029800000F001FFA21D0621204600F0FCFEE21D22
:102990000721204600F0F7FE04F108020821204636
:1029A00000F0F1FE04F109020921204600F0EBFEDF
:1029B000002505F10A0004EBC502C1B294F85C30B1
:1029C0002046103200F0BAFE05F111006219C1B2C2
:1029D0002046483200F0D7FE6D1C062DE9DB94F846
:1029E0005C3004F140021021204600F0A7FE04F103
:1029F0004E021721204600F0C6FE04F14F021C21B2
:102A0000204600F0C0FE04F150022046BDE87040B0
:102A10001D2100F0B8BE000000B5274887B0254949
:102A2000C0F8881025498167CA14A0F8822040F8B0
:102A3000741F8A1482818160091501821C216846F5
:102A4000FDF799FB30208DF805000F208DF806006A
:102A5000322000218DF807008DF800103F218DF8FD
:102A600001108DF8021003218DF8031005218DF857
:102A70000410134903910B390491491D0591072155
:102A800008208DF818108DF80800022106208DF816
:102A90001B108DF80900042101208DF819108DF804
:102AA0000A008DF81A0069460348FFF7D1FE07B007
:102AB00000BD00004C07002048010020000C014030
:102AC0000B00002070B50546B0F88210806F002220
:102AD000FEF72EFB012085F8580006465FF0000443
:102AE00095F85900304226D0E86E022E025D04F1BE
:102AF0001100C0B240F0200128460CD900F085FE3C
:102B0000686E04EB8401421804F10A00C0B240F080
:102B1000200101230CE000F078FE686E04EB8401D4
:102B2000421804F10A0095F85C30C0B240F0200170
:102B3000284600F045FE7006060E641C062CCFDB0E
:102B400095F85800202140F00E022846BDE870405C
:102B500000F05BBE10B50446B0F88210806F002212
:102B60005834FEF7E5FA002004F8060B242114F887
:102B7000012914F85D090243204600F046FE94F84E
:102B80005C3030212046A26E00F01AFEE06E31214A
:102B90000278204600F039FE94F85C302A21204665
:102BA000A26E00F00DFE94F85800202140F00E02B5
:102BB0002046BDE8104000F028BE0000F8B50446ED
:102BC00090F8970017460D46202801D00220F8BD46
:102BD00000208DF80000FEF7B1FA0646212084F8A7
:102BE000970094F870302A46A021204600F0E8FDB6
:102BF000B4F882100122A06FFEF79AFA20256A46E7
:102C00000721204600F0BFFDFEF798FA801BB8426E
:102C100009D9B4F8821054F8780F0022FEF788FA28
:102C2000E5770320F8BD9DF8000010F0300FE6D0E6
:102C3000B4F882100022A06FFEF77AFA6A460721E4
:102C4000204600F0A0FD9DF800202721204600F03E
:102C5000DCFD9DF80020D00607D5E121204600F0DC
:102C6000D4FD84F897500120F8BD90061ED550067B
:102C700012D594F8943033B1D4F890201AB1612170
:102C8000204600F05BFD94F89720E221204600F0FA
:102C9000BCFD204600F010F84FF400510548FEF747
:102CA00040FA94F89600401C84F8960084F89750F7
:102CB0000020F8BD0010014009480A4902780B685D
:102CC00043EA0262437842EA03428378C07842EAE8
:102CD0000322104308604868401C486070470000A9
:102CE000A8060020240100207047000440EA0120CB
:102CF0001043704738B50B460092044600228021ED
:102D000000F01DF8002804D0606D40F020006065E0
:102D1000032038BD3EB500248DF80810FF21009136
:102D20008DF80440D0F88800012301AA02A9FEF71B
:102D300061FF08B18DF804409DF804003EBD2DE907
:102D4000F0411D4617460E460446DDF8188008E09F
:102D5000681C06D0FEF7F2F9A0EB0800A8420BD2DF
:102D600055B12068806836EA000030D00020B842B3
:102D7000EED10020BDE8F0812068416821F0E0013B
:102D800041606068B0F5827F0BD1A068B0F5004F5C
:102D900002D0B0F5806F04D12068016821F04001B5
:102DA0000160A06AB0F5005F09D12068016821F4D4
:102DB000005101602068016841F400510160012068
:102DC00084F85100002084F850000320D2E701204D
:102DD000CDE77047FEF7A8BA30B593B02821684612
:102DE000FDF7C9F914210AA8FDF7C5F9002401204F
:102DF0000F9410941194010412948DE81300049020
:102E00004FF4E010CDE90810022507956846FEF75B
:102E1000E9FC0F20CDE90A056802CDE90C4002214A
:102E20000AA80E94FEF7F2FBA80311900F950FA8C5
:102E3000FEF776FB13B030BD0D48016841F001018B
:102E4000016041680B4A1140416001680A4A114023
:102E50000160016821F480210160416821F4FE01D4
:102E600041604FF41F0181600449C003086070474E
:102E7000001002400000FFF8FFFFF6FE08ED00E042
:102E8000F0B50268164B174C174D4FF0804798422B
:102E900005D0B84203D0A04201D0A84203D122F00D
:102EA00070064A683243984205D0B84203D0A04227
:102EB00001D0A84203D122F44074CA6822434C696D
:102EC00022F08002224302608A68C2620A6882623B
:102ED000984201D10969016301214161F0BD0000FF
:102EE000002C0140000400400008004010B501F033
:102EF0001F030121046A99408C430462016A9A40CD
:102F00001143016210BD10B5446A012184F83D10DF
:102F1000626A824201D121770EE0A16A814201D129
:102F2000022008E0E16A814201D1042003E0216B24
:102F3000814201D1082020772046FFF73DF900208B
:102F4000207710BD10B5446A012184F83D10626AF3
:102F5000824201D121770EE0A16A814201D1022093
:102F600008E0E16A814201D1042003E0216B814243
:102F700001D1082020772046FFF71FF90020207795
:102F800010BD10B5406A012180F83D10FFF753F8DD
:102F900010BD10B5846842EA032224F47F440A433A
:102FA0002243826010BD826822F070020A4342F020
:102FB000070181607047000030B5026A22F001020B
:102FC0000262026A4368846924F073050C682C432A
:102FD00022F002058A682A430A4DA8420BD122F04A
:102FE0000805CA6823F440732A434D6922F004029D
:102FF0001D438B692B4343608461496841630262CE
:1030000030BD0000002C014030B5026A22F01002F1
:103010000262026A436884690D6824F4E64444EA63
:1030200005248D6822F0200242EA05120B4DA842C9
:103030000ED1CD6822F0800242EA05124D6923F4D8
:10304000406343EA85038D6922F0400243EA850329
:103050004360846149688163026230BD002C014095
:1030600030B5026A22F480720262036A4268C4695F
:1030700023F4007324F073050C682C438D6843EA35
:1030800005230C4DA8420ED1CD6823F4006343EA1A
:1030900005234D6922F4405242EA05128D6923F45A
:1030A000806342EA05124260C4614968C1630362F9
:1030B00030BD0000002C014030B5026A22F480527D
:1030C0000262046A4268C3690D6823F4E64343EA76
:1030D00005238D6824F4005444EA0534064DA842C3
:1030E00004D14D6922F4804242EA85124260C361F4
:1030F00049680164046230BD002C014010B5036AC8
:10310000046A24F001040462846924F0F00444EAAF
:10311000021423F00A020A438461026210BD10B552
:10312000036A23F0100303628369046A23F4704383
:1031300043EA023224F0A00343EA011182610162F2
:1031400010BDFEE72DE9F0473F4A0323002582E842
:103150000B0015733D4951613D4991613D49116233
:103160003D49D1610068C06AFDF712F90F46044677
:1031700000223A4BFDF77AF8FDF744F900F08CFE97
:10318000FDF72CF9304E3946083EAA1E3080204605
:10319000FDF7DEF8FDF736F900F07EFEFDF71EF9CB
:1031A000708000202E49321D41F820501554401CDB
:1031B0000428F9DBB0462B4E00248A46914600BF16
:1031C00019F804105AF8240000F04AFEB8F802304A
:1031D000B8F80070002104EB440200BF5FEA002C45
:1031E00001EBC20C02D526F81C7001E026F81C3059
:1031F0004000491C1829F1DB641C042CE0DB002092
:103200004FF4967106EB4002401CA2F8BE50884273
:10321000F8DB134E0024144D144F10362046FDF7F2
:10322000AEF82946FCF7E4FF394600F009FB2946D1
:10323000FCF7ACFF00F030FEFDF7B7F83055641C2A
:10324000FF2CEBDDBDE8F0870001002071320008A3
:10325000AD3F0008413F00080D3F00080000E83F77
:10326000980500208002002000007F43E4380E40D3
:1032700003484FF4C673034A03C8FEF7BBBF000000
:1032800000010020800200204100080218BF042035
:103290000A0E18BF40F001004FF07F4232EA0101F0
:1032A00008BF40F00200012808BF05207047090749
:1032B000090E002804DB00F1E02080F800147047BC
:1032C00000F00F0000F1E02080F8141D704700218D
:1032D0004FF07E50FCF78CBFFDF7E7B800210846A1
:1032E000FCF786BF61214FF0E040FDF736B96FF083
:1032F0005E010807FDF731B902E008C8121F08C1D6
:10330000002AFAD170477047002001E001C1121F66
:10331000002AFBD170470000014908607047000097
:1033200044010020134991FBF0F01349401ECA6884
:103330001268D062CA68D0600A695AB1042A10D0F3
:10334000C96800EBD070082A09684FEA60000FD006
:1033500008647047C96800EBD07040100968486382
:103360007047C96800EBD0704010096888637047E7
:10337000C863704780841E003000002010B50D4CDB
:10338000D4E90301FEF71AFF2169002039B10429AD
:1033900009D00829E168096809D0086410BDE1680E
:1033A0000968486310BDE1680968886310BDC86397
:1033B00010BD00003000002002480169C068FEF71F
:1033C000A5BF00003000002010B5002821D0114B0F
:1033D0000022001F196803E0814203D80A464968A9
:1033E0000029F9D152B11368841A9C4204D10068B3
:1033F00018441060104602E0506000E0186039B1D7
:1034000002680B1A934203D10B681A4402604968A0
:10341000416010BD3C0100202DE9F041494CB4F859
:10342000581054F8540FFDF777FE80F001006076D5
:10343000A189A068FDF770FE424F80F00100A076E0
:1034400000263F1F404D4FF6FF78543C206DFDF79E
:10345000D7FB4146206DFDF73BFB206DFDF77AFA67
:1034600004EB460180B2A1F8640006EB86013A88BD
:1034700005EBC101761C41F82200042EE6DB3888FA
:10348000401C3880206DFDF71BFC3888092856D970
:10349000002000EB8002012105EBC20355F832C089
:1034A00053F82160491C664445F832600A29F5DB6F
:1034B000401C0428EDDB00203880AA6F0A2192FB13
:1034C000F1F2C2F58063642293FBF2F384F86F306B
:1034D0002B6D93FBF1F3A3F5806393FBF2F384F878
:1034E0007030AB6A93FBF1F3C3F5806393FBF2F3A7
:1034F00084F871302B6893FBF1F1A1F5806191FBA9
:10350000F2F184F8721094F96F10491C022901D865
:1035100084F86F0094F97010491C022901D884F8CE
:10352000700094F97110491C022901D884F87100C7
:1035300094F97210491C022901D884F87200BDE880
:10354000F081000030000020E001002010B51F4C89
:10355000218CE0692834FDF7DFFD80F00100207741
:10356000218854F8040CFDF7D7FD80F001004000DD
:10357000607721896068FDF7CFFD80F00100800051
:10358000A077218AE068FDF7C7FD80F00100C00048
:10359000E077218B6069FDF7BFFD90F0010084F8B2
:1035A0002000217F627FE37F41EA0201A27FA4F134
:1035B000280442EA030241EA020101D0002000E0AF
:1035C000FF20014384F86C1010BD00003000002083
:1035D0001CB5FDF7B1FEFFF7FFFBFEF763FFFEF73B
:1035E00003FFFFF7B3F8FFF77FF8FEF7D9FFFEF709
:1035F000F7FFFFF717F8FEF73FFF2D4CD4F88000D8
:103600008047FFF709FA2B4D04212B482A69904780
:103610002B482A49002240F8901F20210171FF21E8
:103620000846FFF762FB2A6A3221904768698047A3
:10363000244F4FF400566D4631463846FDF771FD74
:10364000D4F88400804794F86C00FF2801D06068AB
:1036500000E0A06880471CA1D1E90001CDE900018C
:1036600094F86F008DF8010094F870008DF8020056
:1036700094F871008DF8030094F872008DF804003E
:1036800094F86C008DF80500002108462A5C401C67
:103690001144C9B20628F9DB8DF80610FF226946ED
:1036A0000748FFF78BFA0120FDF734FCC4E7000060
:1036B0003000002000010020A4070020A806002000
:1036C0004801002000100140AA0000000000000096
:1036D000F0B50B30154D20F007010024144A0FE01F
:1036E00003688B420BD38B4205D95E1A4318476897
:1036F000C3E9006700E04368136002C004E0021DF4
:1037000010680028ECD12046002802D1286808B1B2
:103710000020F0BD064A07481060074A121A22F03E
:103720000702C0E9002401202860D7E740010020FB
:103730003C010020AC080020A80A00202DE9F0413F
:103740000C4690460546B0F880101E46406F002299
:10375000FDF7EEFC21462846FFF7DCFA0746002479
:1037600006E0FF212846FFF7D5FA08F80400641C9C
:10377000B442F6DBB5F880100122686FFDF7D8FC83
:103780003846BDE8F08170B50E4615460446B0F8DF
:103790008010406F0022FDF7CBFC31462046FFF73A
:1037A000B9FA0646FF212046FFF7B4FA2870B4F8AC
:1037B00080100122606FFDF7BBFC304670BD000039
:1037C0002DE9F0410C4690460546B0F880101E46A3
:1037D000406F0022FDF7ACFC21462846FFF79AFA1D
:1037E0000746002406E000BF18F804102846FFF73B
:1037F00091FA641CB442F7DBB5F880100122686FBF
:10380000FDF796FC3846BDE8F08170B50D461646CA
:103810000446B0F88010406F0022FDF789FC29466D
:103820002046FFF777FA054631462046FFF772FA41
:10383000B4F880100122606FFDF77AFC284670BD55
:103840002DE9F04D0E460023A0F5000C4FF000715D
:10385000354684B002464FF07E5401EB45014FF0EF
:103860007F48BCF1FE4F80F09F81B1F1804FC0F0E6
:10387000DB81FE490144B1F5005F40F2A78200F50B
:103880008021C90C01F00F07C1F307117F39A2EBAA
:10389000C15501EB030B3846FCF771FD6FF00301D6
:1038A000FCF75BFE4FF07E51FCF7FFFD01460290F6
:1038B0002846FCF74CFE019028460299FCF7F5FDDE
:1038C00000F5006A6FF30B0A009051460298FCF76E
:1038D0003EFE2946FCF7E9FD02904FF07E5000992C
:1038E000FCF786FC014600900198FCF74FFC00F5C0
:1038F00000656FF30B0528460299FCF747FC029020
:1039000051462846FCF742FC0199FCF723FE029938
:10391000FCF71DFE0099FCF739FC01460190284692
:10392000FCF7C3FD01460290FCF730FC8246D0490B
:10393000FCF72CFCCF49FCF7B8FD5146FCF726FC00
:10394000824600212846FCF708FE00905146029866
:10395000FCF71CFC054600210198FCF7FEFD2946FA
:10396000FCF7A3FD824601460098FCF79EFD00F59A
:1039700000656FF30B0529460098FCF7E8FD5146FA
:10398000FCF793FD8246BC492846FCF7FFFB0090FC
:10399000BA495046FCF7FAFB8246B9492846FCF77B
:1039A000F5FB5146FCF781FD824601460098FCF785
:1039B0007CFD00F500656FF30B0529460098FCF7C8
:1039C000C6FD5146FCF771FD8246AE48784450F87A
:1039D000371000EBC700019147684FEA0B10FCF766
:1039E000CEFC009039465046FCF75FFD2946FCF7B7
:1039F0005CFD0199FCF759FD0099FCF756FD00F5B7
:103A0000006B6FF30B0B58460099FCF7A0FD019972
:103A1000FCF79DFD2946FCF79AFD3946FCF797FD1A
:103A20005146FCF797FD06F5006782466FF30B07DA
:103A300039463046FCF78BFD002100900846FCF724
:103A400039FE00F00C0639465846FCF79FFB054648
:103A500020F00040B0F18B4F0ADDB8EB400F07D3E8
:103A60004FF08B4060F31E052F464FF0000A1FE019
:103A700038460099FCF719FD5146FCF787FB0746CD
:103A800058460099FCF782FB3946FCF70EFD82464A
:103A900001462846FCF709FD00F500676FF30B07A8
:103AA00039462846FCF753FD5146FCF7FEFC82469A
:103AB00031460C20FCF7FEFD51463846FCF7F5FC7C
:103AC000FCF7D2FD06460511FCF759FC3946FCF718
:103AD00041FD5146FCF7E9FC07466B49FCF756FBF4
:103AE0006A49FCF7E2FC3946FCF750FB6849FCF7F1
:103AF000DCFC3946FCF74AFB0146664806F00F0637
:103B0000784450F82600FCF741FB6349794451F8AA
:103B10002610FCF7CAFC6149794451F82610FCF7DD
:103B2000C4FC05F17D01FC2908D22946FCF715FDEE
:103B300004B02146BDE8F04DFCF728BB05F1BF01FC
:103B4000B1F5BF7F16D82946FCF707FD2146FCF7E3
:103B50001DFB0546B8EB450F1AD068000CD028466F
:103B6000FFF792FB042808BFFFF7C1FB284604B00B
:103B7000BDE8F08D002D0BDA0220FFF7CDFBFFF73B
:103B8000B6FB0146204604B061F31E00BDE8F08D8F
:103B90000220FFF7C1FBFFF7A5FB0146204604B05A
:103BA00061F31E00BDE8F08DB1F1804F3CD300BF42
:103BB00000F1FF41B1F1FE4F21D200BF20F00042E1
:103BC000C5F3C75110467F290DDB9729BFF651AECB
:103BD000C1F196014FF0010C0CFA01F1A1F1010CB9
:103BE0001CEA050F07D00120FFF796FB04B0BDE8E3
:103BF000F04DFFF773BB294218BF294C39E641004D
:103C00001CBF4FF08071B1EB400F09D91B21FCF7AD
:103C1000A4FC02466FF01A0310F0004FCED128E644
:103C2000BCF1FE4F18D224E6B1F1007F0ED336F07E
:103C3000004105D006F0004141F0FC552E46B7E7A3
:103C4000410018BFB8EB400F78D8B1E7B1F1807FE1
:103C500038BFA5F50006ABD320F000416FF0FF4C54
:103C6000104C01EB0C03A3422FD31DE0001080C0C9
:103C70007EE24C3EABAAAA3E00B038423BAA384294
:103C8000D49AB8BB58060000FC596337C9FF753A8F
:103C90001872313D24060000D80500008C05000094
:103CA000000080BFFFFF3F0025F000439C44A44577
:103CB0000BD3B0F17E5F18BF5FEA450C3ED0B1F187
:103CC000FF4F98BFB3F1FF4F05D904B03146BDE8AF
:103CD000F04DFFF701BBB0F1FF4F0FD0C5F3C75157
:103CE0007F2909DB972911DAC1F19601012202FA35
:103CF00001F14A1E2A4205D0002108E015F0004FCC
:103D000055D128E0294218BF012100D1022110F528
:103D1000000F14D020B3B0F1004F27D010F1814F25
:103D20004ED04FF0FE41B1EB400F94BF0120002078
:103D3000012101EBE571884239D10CE040E015F03A
:103D4000004F02D0012936D031E0012902BF3F489F
:103D500004B0BDE8F08D4FF0FF4004B0BDE8F08D39
:103D600015F000400ED104B0BDE8F08DB5F1FF4F65
:103D70001DD015F5000F05D015F0004F14D009B176
:103D8000012907D00220FFF7C7FA04B0BDE8F04DC3
:103D9000FFF79DBA0220FFF7BFFAFFF798FA04B0C9
:103DA00080F00040BDE8F08D09B1012903D004B0D6
:103DB0000020BDE8F08D04B04FF00040BDE8F08D6C
:103DC00004B04FF07E50BDE8F08D00BF4FF07E5143
:103DD000FCF7BDFB05466FF00101FCF7BEFB1C497B
:103DE000FCF7B8FB2946FCF7D1F94FF07C51FCF702
:103DF000B1FB074629460846FCF7C8F980F00040A9
:103E00003946FCF7C3F9824612492846FCF7BEF949
:103E1000074611495046FCF7B9F982460F49284632
:103E2000FCF7B4F95146FCF740FB0546014638461D
:103E3000FCF73BFB00F5006B6FF30B0B5946384664
:103E4000FCF785FB2946FCF730FBECE5000080FF22
:103E5000ABAAAA3E00B0B8413BAAB841D49A38BB3D
:103E600010B56424C0F30743C0F307224B434A4311
:103E7000C0B24843B0FBF4F1B2FBF4F2B3FBF4F38D
:103E80000448825CC35C415C100440EA03200843A0
:103E900010BD0000A805002070B50546FCF769FBC1
:103EA000044601462846FCF752FB15F0004F4FF040
:103EB0007F410ED0B0F13F4F28BFB1EB400F0ED283
:103EC000B0F17C5F1DDDB1EB400F1AD313E0044667
:103ED00017E0B0F13F4F08D9B1EB400F05D34FF0D9
:103EE0007E512046FCF733FBF1E7B0F17C5F08DB45
:103EF000B1EB400F05D34FF07E512046FCF7D5FAC9
:103F0000E5E7284664F31E0070BD00000020094A62
:103F1000014600BF42F82010401C0328FADB064986
:103F2000064A0020498800BF22F81010401C48288B
:103F3000FADB704798050020F8000020800200207E
:103F40002DE9F05FDFF85CA0DFF85CB00E4680463C
:103F50000024ABF10409AAF5467500BF4AF8248095
:103F60000BF8046031464046FFF77AFFB9F802309B
:103F7000B9F80070002204EB440100BF5FEA002C96
:103F800002EBC10C02D525F81C7001E025F81C30AD
:103F90004000521C182AF1DB641C032CDEDBBDE858
:103FA000F09F000098050020FC0000202DE9F04162
:103FB000144D0B460446032822D21348114640F8FC
:103FC0002430281F02551846FFF74AFFA5F10802C2
:103FD00001465688138804EB44020C4C00200F0263
:103FE00000EBC20702D524F8173001E024F817606F
:103FF0004900401C1828F2DB00202873BDE8F0813E
:104000000120FAE70001002098050020800200202E
:104010000000000000000000010203040607080978
:104020000000000001020304000000000000000086
:104030000000B33FB2BE7D3A00002E40DFCF5138C2
:1040400000007E40BF51FABA00E0A44019DAC3BABA
:1040500000E0C840C2ED8AB90040EB40CD1F2CBA49
:10406000001006412AFFFABA00C01541DFCFD13750
:1040700000D024419A97703A0050334189478E36D8
:1040800000404141E75B9D3800B04E41C00A98B9FD
:1040900000A05B41558F943A00306841DA92C0BA73
:1040A0000040744162B3C63A0000803F00A0853FE3
:1040B00000908B3F00C0913F0030983F00F09E3F42
:1040C00000F0A53F0050AD3F0000B53F0000BD3FF0
:1040D0000060C53F0020CE3F0040D73F00C0E03F1A
:1040E00000C0EA3F0020F53F000000007D36AC39FB
:1040F0007D3C3839EBDCF438320A7E39124C2639F3
:104100009B6AED39A4EE83397F661E39F6398A3908
:104110002B426539A48211395B991F39C3EECD3921
:10412000DDE7C637A5A22F390000803FC3AA853F2F
:10413000C2958B3FD3C3913FF037983F32F59E3FF6
:10414000D7FEA53F3F58AD3FF304B53FA408BD3FA0
:104150002A67C53F8C24CE3FFD44D73FDFCCE03FEC
:10416000C7C0EA3F7D25F53F8841000800000020D8
:1041700048010000FA060008E84100084801002054
:10418000600D0000083300083F123456789A07018A
:10419000390B1B1AC201421B421C421D028B1E130B
:1041A00065234208230B021A4B041A93041ABA041B
:1041B0002310031A70041ADC042316041A9704232C
:1041C00026051A75042320061AE00423AF071A34C3
:1041D0003E1AFC0412420215174B45316001153599
:0841E000A24A040102131000C1
:04000005080000ED02
:00000001FF
